{
  "_format": "hh3-artifact-1",
  "contractName": "LedgerAnchor",
  "sourceName": "contracts/LedgerAnchor.sol",
  "abi": [
    {
      "anonymous": false,
      "inputs": [
        {
          "indexed": true,
          "internalType": "uint256",
          "name": "anchorId",
          "type": "uint256"
        },
        {
          "indexed": true,
          "internalType": "bytes32",
          "name": "rootHash",
          "type": "bytes32"
        },
        {
          "indexed": true,
          "internalType": "uint256",
          "name": "blockIndex",
          "type": "uint256"
        },
        {
          "indexed": false,
          "internalType": "string",
          "name": "source",
          "type": "string"
        },
        {
          "indexed": false,
          "internalType": "uint256",
          "name": "anchoredAt",
          "type": "uint256"
        }
      ],
      "name": "AnchorStored",
      "type": "event"
    },
    {
      "inputs": [
        {
          "internalType": "bytes32",
          "name": "rootHash",
          "type": "bytes32"
        },
        {
          "internalType": "uint256",
          "name": "blockIndex",
          "type": "uint256"
        },
        {
          "internalType": "string",
          "name": "source",
          "type": "string"
        }
      ],
      "name": "anchorRoot",
      "outputs": [
        {
          "internalType": "uint256",
          "name": "anchorId",
          "type": "uint256"
        }
      ],
      "stateMutability": "nonpayable",
      "type": "function"
    },
    {
      "inputs": [
        {
          "internalType": "uint256",
          "name": "anchorId",
          "type": "uint256"
        }
      ],
      "name": "getAnchor",
      "outputs": [
        {
          "internalType": "bytes32",
          "name": "rootHash",
          "type": "bytes32"
        },
        {
          "internalType": "uint256",
          "name": "blockIndex",
          "type": "uint256"
        },
        {
          "internalType": "uint256",
          "name": "anchoredAt",
          "type": "uint256"
        },
        {
          "internalType": "string",
          "name": "source",
          "type": "string"
        }
      ],
      "stateMutability": "view",
      "type": "function"
    },
    {
      "inputs": [],
      "name": "getLatestAnchor",
      "outputs": [
        {
          "internalType": "bytes32",
          "name": "rootHash",
          "type": "bytes32"
        },
        {
          "internalType": "uint256",
          "name": "blockIndex",
          "type": "uint256"
        },
        {
          "internalType": "uint256",
          "name": "anchoredAt",
          "type": "uint256"
        },
        {
          "internalType": "string",
          "name": "source",
          "type": "string"
        }
      ],
      "stateMutability": "view",
      "type": "function"
    },
    {
      "inputs": [],
      "name": "totalAnchors",
      "outputs": [
        {
          "internalType": "uint256",
          "name": "",
          "type": "uint256"
        }
      ],
      "stateMutability": "view",
      "type": "function"
    }
  ],
  "bytecode": "0x608060405234801561000f575f80fd5b50610d178061001d5f395ff3fe608060405234801561000f575f80fd5b506004361061004a575f3560e01c80634c7df18f1461004e5780637a1f60a11461008157806383501ac7146100b15780639ffb4635146100d2575b5f80fd5b61006860048036038101906100639190610519565b6100f0565b60405161007894939291906105f5565b60405180910390f35b61009b600480360381019061009691906106ca565b610209565b6040516100a8919061073b565b60405180910390f35b6100b96103ab565b6040516100c994939291906105f5565b60405180910390f35b6100da6104d3565b6040516100e7919061073b565b60405180910390f35b5f805f60605f80549050851061013b576040517f08c379a00000000000000000000000000000000000000000000000000000000081526004016101329061079e565b60405180910390fd5b5f80868154811061014f5761014e6107bc565b5b905f5260205f2090600402019050805f0154816001015482600201548360030180805461017b90610816565b80601f01602080910402602001604051908101604052809291908181526020018280546101a790610816565b80156101f25780601f106101c9576101008083540402835291602001916101f2565b820191905f5260205f20905b8154815290600101906020018083116101d557829003601f168201915b505050505090509450945094509450509193509193565b5f805f1b850361024e576040517f08c379a000000000000000000000000000000000000000000000000000000000815260040161024590610890565b60405180910390fd5b5f8383905011610293576040517f08c379a000000000000000000000000000000000000000000000000000000000815260040161028a906108f8565b60405180910390fd5b5f604051806080016040528087815260200186815260200142815260200185858080601f0160208091040260200160405190810160405280939291908181526020018383808284375f81840152601f19601f82011690508083019250505050505050815250908060018154018082558091505060019003905f5260205f2090600402015f909190919091505f820151815f01556020820151816001015560408201518160020155606082015181600301908161034f9190610ae0565b50505060015f805490506103639190610bdc565b90508385827f57b22e6aec0d2f0719d903094927218117139a6ddef38603a75a16ca6b3164ab86864260405161039b93929190610c49565b60405180910390a4949350505050565b5f805f60605f8080549050116103f6576040517f08c379a00000000000000000000000000000000000000000000000000000000081526004016103ed90610cc3565b60405180910390fd5b5f8060015f805490506104099190610bdc565b8154811061041a576104196107bc565b5b905f5260205f2090600402019050805f0154816001015482600201548360030180805461044690610816565b80601f016020809104026020016040519081016040528092919081815260200182805461047290610816565b80156104bd5780601f10610494576101008083540402835291602001916104bd565b820191905f5260205f20905b8154815290600101906020018083116104a057829003601f168201915b5050505050905094509450945094505090919293565b5f8080549050905090565b5f80fd5b5f80fd5b5f819050919050565b6104f8816104e6565b8114610502575f80fd5b50565b5f81359050610513816104ef565b92915050565b5f6020828403121561052e5761052d6104de565b5b5f61053b84828501610505565b91505092915050565b5f819050919050565b61055681610544565b82525050565b610565816104e6565b82525050565b5f81519050919050565b5f82825260208201905092915050565b5f5b838110156105a2578082015181840152602081019050610587565b5f8484015250505050565b5f601f19601f8301169050919050565b5f6105c78261056b565b6105d18185610575565b93506105e1818560208601610585565b6105ea816105ad565b840191505092915050565b5f6080820190506106085f83018761054d565b610615602083018661055c565b610622604083018561055c565b818103606083015261063481846105bd565b905095945050505050565b61064881610544565b8114610652575f80fd5b50565b5f813590506106638161063f565b92915050565b5f80fd5b5f80fd5b5f80fd5b5f8083601f84011261068a57610689610669565b5b8235905067ffffffffffffffff8111156106a7576106a661066d565b5b6020830191508360018202830111156106c3576106c2610671565b5b9250929050565b5f805f80606085870312156106e2576106e16104de565b5b5f6106ef87828801610655565b945050602061070087828801610505565b935050604085013567ffffffffffffffff811115610721576107206104e2565b5b61072d87828801610675565b925092505092959194509250565b5f60208201905061074e5f83018461055c565b92915050565b7f616e63686f72206e6f7420666f756e64000000000000000000000000000000005f82015250565b5f610788601083610575565b915061079382610754565b602082019050919050565b5f6020820190508181035f8301526107b58161077c565b9050919050565b7f4e487b71000000000000000000000000000000000000000000000000000000005f52603260045260245ffd5b7f4e487b71000000000000000000000000000000000000000000000000000000005f52602260045260245ffd5b5f600282049050600182168061082d57607f821691505b6020821081036108405761083f6107e9565b5b50919050565b7f726f6f74486173682072657175697265640000000000000000000000000000005f82015250565b5f61087a601183610575565b915061088582610846565b602082019050919050565b5f6020820190508181035f8301526108a78161086e565b9050919050565b7f736f7572636520726571756972656400000000000000000000000000000000005f82015250565b5f6108e2600f83610575565b91506108ed826108ae565b602082019050919050565b5f6020820190508181035f83015261090f816108d6565b9050919050565b7f4e487b71000000000000000000000000000000000000000000000000000000005f52604160045260245ffd5b5f819050815f5260205f209050919050565b5f6020601f8301049050919050565b5f82821b905092915050565b5f6008830261099f7fffffffffffffffffffffffffffffffffffffffffffffffffffffffffffffffff82610964565b6109a98683610964565b95508019841693508086168417925050509392505050565b5f819050919050565b5f6109e46109df6109da846104e6565b6109c1565b6104e6565b9050919050565b5f819050919050565b6109fd836109ca565b610a11610a09826109eb565b848454610970565b825550505050565b5f90565b610a25610a19565b610a308184846109f4565b505050565b5b81811015610a5357610a485f82610a1d565b600181019050610a36565b5050565b601f821115610a9857610a6981610943565b610a7284610955565b81016020851015610a81578190505b610a95610a8d85610955565b830182610a35565b50505b505050565b5f82821c905092915050565b5f610ab85f1984600802610a9d565b1980831691505092915050565b5f610ad08383610aa9565b9150826002028217905092915050565b610ae98261056b565b67ffffffffffffffff811115610b0257610b01610916565b5b610b0c8254610816565b610b17828285610a57565b5f60209050601f831160018114610b48575f8415610b36578287015190505b610b408582610ac5565b865550610ba7565b601f198416610b5686610943565b5f5b82811015610b7d57848901518255600182019150602085019450602081019050610b58565b86831015610b9a5784890151610b96601f891682610aa9565b8355505b6001600288020188555050505b505050505050565b7f4e487b71000000000000000000000000000000000000000000000000000000005f52601160045260245ffd5b5f610be6826104e6565b9150610bf1836104e6565b9250828203905081811115610c0957610c08610baf565b5b92915050565b828183375f83830152505050565b5f610c288385610575565b9350610c35838584610c0f565b610c3e836105ad565b840190509392505050565b5f6040820190508181035f830152610c62818587610c1d565b9050610c71602083018461055c565b949350505050565b7f6e6f20616e63686f7273000000000000000000000000000000000000000000005f82015250565b5f610cad600a83610575565b9150610cb882610c79565b602082019050919050565b5f6020820190508181035f830152610cda81610ca1565b905091905056fea264697066735822122049ade2514a00212386e9d2932e7cdf75dad53d7e8aa9ecf62c40ea6d5222c34964736f6c63430008180033",
  "linkReferences": {},
  "deployedLinkReferences": {},
  "immutableReferences": {},
  "inputSourceName": "project/contracts/LedgerAnchor.sol",
  "buildInfoId": "solc-0_8_24-5967859c100dcd96a9a9a924607911b2c666f203"
}